{
  "_format": "hh-sol-artifact-1",
  "contractName": "ASSGNMT_ERC20",
  "sourceName": "contracts/first.sol",
  "abi": [
    {
      "inputs": [],
      "stateMutability": "nonpayable",
      "type": "constructor"
    },
    {
      "anonymous": false,
      "inputs": [
        {
          "indexed": true,
          "internalType": "address",
          "name": "owner",
          "type": "address"
        },
        {
          "indexed": true,
          "internalType": "address",
          "name": "spender",
          "type": "address"
        },
        {
          "indexed": false,
          "internalType": "uint256",
          "name": "value",
          "type": "uint256"
        }
      ],
      "name": "Approval",
      "type": "event"
    },
    {
      "anonymous": false,
      "inputs": [
        {
          "indexed": true,
          "internalType": "address",
          "name": "previousOwner",
          "type": "address"
        },
        {
          "indexed": true,
          "internalType": "address",
          "name": "newOwner",
          "type": "address"
        }
      ],
      "name": "OwnershipTransferred",
      "type": "event"
    },
    {
      "anonymous": false,
      "inputs": [
        {
          "indexed": false,
          "internalType": "address",
          "name": "account",
          "type": "address"
        }
      ],
      "name": "Paused",
      "type": "event"
    },
    {
      "anonymous": false,
      "inputs": [
        {
          "indexed": true,
          "internalType": "address",
          "name": "from",
          "type": "address"
        },
        {
          "indexed": true,
          "internalType": "address",
          "name": "to",
          "type": "address"
        },
        {
          "indexed": false,
          "internalType": "uint256",
          "name": "value",
          "type": "uint256"
        }
      ],
      "name": "Transfer",
      "type": "event"
    },
    {
      "anonymous": false,
      "inputs": [
        {
          "indexed": false,
          "internalType": "address",
          "name": "account",
          "type": "address"
        }
      ],
      "name": "Unpaused",
      "type": "event"
    },
    {
      "inputs": [
        {
          "internalType": "address",
          "name": "owner",
          "type": "address"
        },
        {
          "internalType": "address",
          "name": "spender",
          "type": "address"
        }
      ],
      "name": "allowance",
      "outputs": [
        {
          "internalType": "uint256",
          "name": "",
          "type": "uint256"
        }
      ],
      "stateMutability": "view",
      "type": "function"
    },
    {
      "inputs": [
        {
          "internalType": "address",
          "name": "spender",
          "type": "address"
        },
        {
          "internalType": "uint256",
          "name": "amount",
          "type": "uint256"
        }
      ],
      "name": "approve",
      "outputs": [
        {
          "internalType": "bool",
          "name": "",
          "type": "bool"
        }
      ],
      "stateMutability": "nonpayable",
      "type": "function"
    },
    {
      "inputs": [
        {
          "internalType": "address",
          "name": "account",
          "type": "address"
        }
      ],
      "name": "balanceOf",
      "outputs": [
        {
          "internalType": "uint256",
          "name": "",
          "type": "uint256"
        }
      ],
      "stateMutability": "view",
      "type": "function"
    },
    {
      "inputs": [],
      "name": "cap",
      "outputs": [
        {
          "internalType": "uint256",
          "name": "",
          "type": "uint256"
        }
      ],
      "stateMutability": "view",
      "type": "function"
    },
    {
      "inputs": [],
      "name": "curentTime",
      "outputs": [
        {
          "internalType": "uint256",
          "name": "",
          "type": "uint256"
        }
      ],
      "stateMutability": "view",
      "type": "function"
    },
    {
      "inputs": [],
      "name": "decimals",
      "outputs": [
        {
          "internalType": "uint8",
          "name": "",
          "type": "uint8"
        }
      ],
      "stateMutability": "view",
      "type": "function"
    },
    {
      "inputs": [
        {
          "internalType": "address",
          "name": "spender",
          "type": "address"
        },
        {
          "internalType": "uint256",
          "name": "subtractedValue",
          "type": "uint256"
        }
      ],
      "name": "decreaseAllowance",
      "outputs": [
        {
          "internalType": "bool",
          "name": "",
          "type": "bool"
        }
      ],
      "stateMutability": "nonpayable",
      "type": "function"
    },
    {
      "inputs": [
        {
          "internalType": "address",
          "name": "account",
          "type": "address"
        },
        {
          "internalType": "uint256",
          "name": "amount",
          "type": "uint256"
        }
      ],
      "name": "generateToken",
      "outputs": [],
      "stateMutability": "nonpayable",
      "type": "function"
    },
    {
      "inputs": [
        {
          "internalType": "address",
          "name": "spender",
          "type": "address"
        },
        {
          "internalType": "uint256",
          "name": "addedValue",
          "type": "uint256"
        }
      ],
      "name": "increaseAllowance",
      "outputs": [
        {
          "internalType": "bool",
          "name": "",
          "type": "bool"
        }
      ],
      "stateMutability": "nonpayable",
      "type": "function"
    },
    {
      "inputs": [],
      "name": "name",
      "outputs": [
        {
          "internalType": "string",
          "name": "",
          "type": "string"
        }
      ],
      "stateMutability": "view",
      "type": "function"
    },
    {
      "inputs": [],
      "name": "owner",
      "outputs": [
        {
          "internalType": "address",
          "name": "",
          "type": "address"
        }
      ],
      "stateMutability": "view",
      "type": "function"
    },
    {
      "inputs": [],
      "name": "paused",
      "outputs": [
        {
          "internalType": "bool",
          "name": "",
          "type": "bool"
        }
      ],
      "stateMutability": "view",
      "type": "function"
    },
    {
      "inputs": [],
      "name": "renounceOwnership",
      "outputs": [],
      "stateMutability": "nonpayable",
      "type": "function"
    },
    {
      "inputs": [
        {
          "internalType": "uint256",
          "name": "numOfDays",
          "type": "uint256"
        }
      ],
      "name": "setTimeLimitForTransaction",
      "outputs": [],
      "stateMutability": "nonpayable",
      "type": "function"
    },
    {
      "inputs": [],
      "name": "startTran",
      "outputs": [],
      "stateMutability": "nonpayable",
      "type": "function"
    },
    {
      "inputs": [],
      "name": "stopTran",
      "outputs": [],
      "stateMutability": "nonpayable",
      "type": "function"
    },
    {
      "inputs": [],
      "name": "symbol",
      "outputs": [
        {
          "internalType": "string",
          "name": "",
          "type": "string"
        }
      ],
      "stateMutability": "view",
      "type": "function"
    },
    {
      "inputs": [],
      "name": "timelimit",
      "outputs": [
        {
          "internalType": "uint256",
          "name": "",
          "type": "uint256"
        }
      ],
      "stateMutability": "view",
      "type": "function"
    },
    {
      "inputs": [],
      "name": "totalSupply",
      "outputs": [
        {
          "internalType": "uint256",
          "name": "",
          "type": "uint256"
        }
      ],
      "stateMutability": "view",
      "type": "function"
    },
    {
      "inputs": [
        {
          "internalType": "address",
          "name": "recipient",
          "type": "address"
        },
        {
          "internalType": "uint256",
          "name": "amount",
          "type": "uint256"
        }
      ],
      "name": "transfer",
      "outputs": [
        {
          "internalType": "bool",
          "name": "",
          "type": "bool"
        }
      ],
      "stateMutability": "nonpayable",
      "type": "function"
    },
    {
      "inputs": [
        {
          "internalType": "address",
          "name": "sender",
          "type": "address"
        },
        {
          "internalType": "address",
          "name": "recipient",
          "type": "address"
        },
        {
          "internalType": "uint256",
          "name": "amount",
          "type": "uint256"
        }
      ],
      "name": "transferFrom",
      "outputs": [
        {
          "internalType": "bool",
          "name": "",
          "type": "bool"
        }
      ],
      "stateMutability": "nonpayable",
      "type": "function"
    },
    {
      "inputs": [
        {
          "internalType": "address",
          "name": "newOwner",
          "type": "address"
        }
      ],
      "name": "transferOwnership",
      "outputs": [],
      "stateMutability": "nonpayable",
      "type": "function"
    },
    {
      "inputs": [
        {
          "internalType": "address",
          "name": "receiver",
          "type": "address"
        },
        {
          "internalType": "uint256",
          "name": "amount",
          "type": "uint256"
        }
      ],
      "name": "transferTokens",
      "outputs": [],
      "stateMutability": "nonpayable",
      "type": "function"
    }
  ],
  "bytecode": "0x60806040523480156200001157600080fd5b506040518060400160405280600981526020017f44656d6f546f6b656e00000000000000000000000000000000000000000000008152506040518060400160405280600481526020017f6572323000000000000000000000000000000000000000000000000000000000815250816003908051906020019062000096929190620003dc565b508060049080519060200190620000af929190620003dc565b505050620000d2620000c66200016a60201b60201c565b6200017260201b60201c565b6000600560146101000a81548160ff0219169083151502179055506000620000ff6200023860201b60201c565b60ff16600a620001109190620005e7565b6127106200011f919062000724565b90506200013c6002826200024160201b62000f531790919060201c565b6006819055506200015433826200025960201b60201c565b4260088190555060006009819055505062000830565b600033905090565b6000600560009054906101000a900473ffffffffffffffffffffffffffffffffffffffff16905081600560006101000a81548173ffffffffffffffffffffffffffffffffffffffff021916908373ffffffffffffffffffffffffffffffffffffffff1602179055508173ffffffffffffffffffffffffffffffffffffffff168173ffffffffffffffffffffffffffffffffffffffff167f8be0079c531659141344cd1fd0a4f28419497f9722a3daafe3b4186f6b6457e060405160405180910390a35050565b60006012905090565b6000818362000251919062000724565b905092915050565b600073ffffffffffffffffffffffffffffffffffffffff168273ffffffffffffffffffffffffffffffffffffffff161415620002cc576040517f08c379a0000000000000000000000000000000000000000000000000000000008152600401620002c390620004df565b60405180910390fd5b620002e060008383620003d260201b60201c565b8060026000828254620002f491906200052f565b92505081905550806000808473ffffffffffffffffffffffffffffffffffffffff1673ffffffffffffffffffffffffffffffffffffffff16815260200190815260200160002060008282546200034b91906200052f565b925050819055508173ffffffffffffffffffffffffffffffffffffffff16600073ffffffffffffffffffffffffffffffffffffffff167fddf252ad1be2c89b69c2b068fc378daa952ba7f163c4a11628f55a4df523b3ef83604051620003b2919062000501565b60405180910390a3620003ce60008383620003d760201b60201c565b5050565b505050565b505050565b828054620003ea906200078f565b90600052602060002090601f0160209004810192826200040e57600085556200045a565b82601f106200042957805160ff19168380011785556200045a565b828001600101855582156200045a579182015b82811115620004595782518255916020019190600101906200043c565b5b5090506200046991906200046d565b5090565b5b80821115620004885760008160009055506001016200046e565b5090565b60006200049b601f836200051e565b91507f45524332303a206d696e7420746f20746865207a65726f2061646472657373006000830152602082019050919050565b620004d98162000785565b82525050565b60006020820190508181036000830152620004fa816200048c565b9050919050565b6000602082019050620005186000830184620004ce565b92915050565b600082825260208201905092915050565b60006200053c8262000785565b9150620005498362000785565b9250827fffffffffffffffffffffffffffffffffffffffffffffffffffffffffffffffff03821115620005815762000580620007c5565b5b828201905092915050565b6000808291508390505b6001851115620005de57808604811115620005b657620005b5620007c5565b5b6001851615620005c65780820291505b8081029050620005d68562000823565b945062000596565b94509492505050565b6000620005f48262000785565b9150620006018362000785565b9250620006307fffffffffffffffffffffffffffffffffffffffffffffffffffffffffffffffff848462000638565b905092915050565b6000826200064a57600190506200071d565b816200065a57600090506200071d565b81600181146200067357600281146200067e57620006b4565b60019150506200071d565b60ff841115620006935762000692620007c5565b5b8360020a915084821115620006ad57620006ac620007c5565b5b506200071d565b5060208310610133831016604e8410600b8410161715620006ee5782820a905083811115620006e857620006e7620007c5565b5b6200071d565b620006fd84848460016200058c565b92509050818404811115620007175762000716620007c5565b5b81810290505b9392505050565b6000620007318262000785565b91506200073e8362000785565b9250817fffffffffffffffffffffffffffffffffffffffffffffffffffffffffffffffff04831182151516156200077a5762000779620007c5565b5b828202905092915050565b6000819050919050565b60006002820490506001821680620007a857607f821691505b60208210811415620007bf57620007be620007f4565b5b50919050565b7f4e487b7100000000000000000000000000000000000000000000000000000000600052601160045260246000fd5b7f4e487b7100000000000000000000000000000000000000000000000000000000600052602260045260246000fd5b60008160011c9050919050565b61233d80620008406000396000f3fe608060405234801561001057600080fd5b506004361061014d5760003560e01c80636cca1bf2116100c3578063a457c2d71161007c578063a457c2d71461035a578063a9059cbb1461038a578063aaebdb4d146103ba578063bec3fa17146103d6578063dd62ed3e146103f2578063f2fde38b146104225761014d565b80636cca1bf2146102bc57806370a08231146102c6578063715018a6146102f657806387963f8e146103005780638da5cb5b1461031e57806395d89b411461033c5761014d565b80632b2f3e18116101155780632b2f3e181461020a578063302b4a2114610228578063313ce56714610232578063355274ea14610250578063395093511461026e5780635c975abb1461029e5761014d565b806306fdde0314610152578063095ea7b31461017057806318160ddd146101a0578063188b5372146101be57806323b872dd146101da575b600080fd5b61015a61043e565b6040516101679190611e8c565b60405180910390f35b61018a60048036038101906101859190611826565b6104d0565b6040516101979190611e71565b60405180910390f35b6101a86104ee565b6040516101b591906120ae565b60405180910390f35b6101d860048036038101906101d39190611826565b6104f8565b005b6101f460048036038101906101ef91906117d7565b610720565b6040516102019190611e71565b60405180910390f35b610212610818565b60405161021f91906120ae565b60405180910390f35b61023061081e565b005b61023a6108ec565b60405161024791906120c9565b60405180910390f35b6102586108f5565b60405161026591906120ae565b60405180910390f35b61028860048036038101906102839190611826565b6108fb565b6040516102959190611e71565b60405180910390f35b6102a66109a7565b6040516102b39190611e71565b60405180910390f35b6102c46109be565b005b6102e060048036038101906102db9190611772565b610a8b565b6040516102ed91906120ae565b60405180910390f35b6102fe610ad3565b005b610308610b5b565b60405161031591906120ae565b60405180910390f35b610326610b61565b6040516103339190611e56565b60405180910390f35b610344610b8b565b6040516103519190611e8c565b60405180910390f35b610374600480360381019061036f9190611826565b610c1d565b6040516103819190611e71565b60405180910390f35b6103a4600480360381019061039f9190611826565b610d08565b6040516103b19190611e71565b60405180910390f35b6103d460048036038101906103cf9190611862565b610d26565b005b6103f060048036038101906103eb9190611826565b610dc5565b005b61040c6004803603810190610407919061179b565b610dd4565b60405161041991906120ae565b60405180910390f35b61043c60048036038101906104379190611772565b610e5b565b005b60606003805461044d90612238565b80601f016020809104026020016040519081016040528092919081815260200182805461047990612238565b80156104c65780601f1061049b576101008083540402835291602001916104c6565b820191906000526020600020905b8154815290600101906020018083116104a957829003601f168201915b5050505050905090565b60006104e46104dd610f69565b8484610f71565b6001905092915050565b6000600254905090565b6105006109a7565b15610540576040517f08c379a000000000000000000000000000000000000000000000000000000000815260040161053790611f6e565b60405180910390fd5b610548610f69565b73ffffffffffffffffffffffffffffffffffffffff16610566610b61565b73ffffffffffffffffffffffffffffffffffffffff16146105bc576040517f08c379a00000000000000000000000000000000000000000000000000000000081526004016105b390611fae565b60405180910390fd5b60095460085411610602576040517f08c379a00000000000000000000000000000000000000000000000000000000081526004016105f990611fce565b60405180910390fd5b600073ffffffffffffffffffffffffffffffffffffffff168273ffffffffffffffffffffffffffffffffffffffff161415610672576040517f08c379a00000000000000000000000000000000000000000000000000000000081526004016106699061204e565b60405180910390fd5b600081116106b5576040517f08c379a00000000000000000000000000000000000000000000000000000000081526004016106ac9061202e565b60405180910390fd5b6006546106d2826106c46104ee565b61113c90919063ffffffff16565b10610712576040517f08c379a000000000000000000000000000000000000000000000000000000000815260040161070990611eee565b60405180910390fd5b61071c8282611152565b5050565b600061072d8484846112b2565b6000600160008673ffffffffffffffffffffffffffffffffffffffff1673ffffffffffffffffffffffffffffffffffffffff1681526020019081526020016000206000610778610f69565b73ffffffffffffffffffffffffffffffffffffffff1673ffffffffffffffffffffffffffffffffffffffff168152602001908152602001600020549050828110156107f8576040517f08c379a00000000000000000000000000000000000000000000000000000000081526004016107ef90611f8e565b60405180910390fd5b61080c85610804610f69565b858403610f71565b60019150509392505050565b60085481565b6108266109a7565b15610866576040517f08c379a000000000000000000000000000000000000000000000000000000000815260040161085d90611f6e565b60405180910390fd5b61086e610f69565b73ffffffffffffffffffffffffffffffffffffffff1661088c610b61565b73ffffffffffffffffffffffffffffffffffffffff16146108e2576040517f08c379a00000000000000000000000000000000000000000000000000000000081526004016108d990611fae565b60405180910390fd5b6108ea611533565b565b60006012905090565b60065481565b600061099d610908610f69565b848460016000610916610f69565b73ffffffffffffffffffffffffffffffffffffffff1673ffffffffffffffffffffffffffffffffffffffff16815260200190815260200160002060008873ffffffffffffffffffffffffffffffffffffffff1673ffffffffffffffffffffffffffffffffffffffff168152602001908152602001600020546109989190612100565b610f71565b6001905092915050565b6000600560149054906101000a900460ff16905090565b6109c66109a7565b610a05576040517f08c379a00000000000000000000000000000000000000000000000000000000081526004016109fc90611ece565b60405180910390fd5b610a0d610f69565b73ffffffffffffffffffffffffffffffffffffffff16610a2b610b61565b73ffffffffffffffffffffffffffffffffffffffff1614610a81576040517f08c379a0000000000000000000000000000000000000000000000000000000008152600401610a7890611fae565b60405180910390fd5b610a896115d6565b565b60008060008373ffffffffffffffffffffffffffffffffffffffff1673ffffffffffffffffffffffffffffffffffffffff168152602001908152602001600020549050919050565b610adb610f69565b73ffffffffffffffffffffffffffffffffffffffff16610af9610b61565b73ffffffffffffffffffffffffffffffffffffffff1614610b4f576040517f08c379a0000000000000000000000000000000000000000000000000000000008152600401610b4690611fae565b60405180910390fd5b610b596000611678565b565b60095481565b6000600560009054906101000a900473ffffffffffffffffffffffffffffffffffffffff16905090565b606060048054610b9a90612238565b80601f0160208091040260200160405190810160405280929190818152602001828054610bc690612238565b8015610c135780601f10610be857610100808354040283529160200191610c13565b820191906000526020600020905b815481529060010190602001808311610bf657829003601f168201915b5050505050905090565b60008060016000610c2c610f69565b73ffffffffffffffffffffffffffffffffffffffff1673ffffffffffffffffffffffffffffffffffffffff16815260200190815260200160002060008573ffffffffffffffffffffffffffffffffffffffff1673ffffffffffffffffffffffffffffffffffffffff16815260200190815260200160002054905082811015610ce9576040517f08c379a0000000000000000000000000000000000000000000000000000000008152600401610ce09061206e565b60405180910390fd5b610cfd610cf4610f69565b85858403610f71565b600191505092915050565b6000610d1c610d15610f69565b84846112b2565b6001905092915050565b610d2e610f69565b73ffffffffffffffffffffffffffffffffffffffff16610d4c610b61565b73ffffffffffffffffffffffffffffffffffffffff1614610da2576040517f08c379a0000000000000000000000000000000000000000000000000000000008152600401610d9990611fae565b60405180910390fd5b6201518081610db19190612156565b42610dbc9190612100565b60098190555050565b610dcf8282610d08565b505050565b6000600160008473ffffffffffffffffffffffffffffffffffffffff1673ffffffffffffffffffffffffffffffffffffffff16815260200190815260200160002060008373ffffffffffffffffffffffffffffffffffffffff1673ffffffffffffffffffffffffffffffffffffffff16815260200190815260200160002054905092915050565b610e63610f69565b73ffffffffffffffffffffffffffffffffffffffff16610e81610b61565b73ffffffffffffffffffffffffffffffffffffffff1614610ed7576040517f08c379a0000000000000000000000000000000000000000000000000000000008152600401610ece90611fae565b60405180910390fd5b600073ffffffffffffffffffffffffffffffffffffffff168173ffffffffffffffffffffffffffffffffffffffff161415610f47576040517f08c379a0000000000000000000000000000000000000000000000000000000008152600401610f3e90611f0e565b60405180910390fd5b610f5081611678565b50565b60008183610f619190612156565b905092915050565b600033905090565b600073ffffffffffffffffffffffffffffffffffffffff168373ffffffffffffffffffffffffffffffffffffffff161415610fe1576040517f08c379a0000000000000000000000000000000000000000000000000000000008152600401610fd89061200e565b60405180910390fd5b600073ffffffffffffffffffffffffffffffffffffffff168273ffffffffffffffffffffffffffffffffffffffff161415611051576040517f08c379a000000000000000000000000000000000000000000000000000000000815260040161104890611f2e565b60405180910390fd5b80600160008573ffffffffffffffffffffffffffffffffffffffff1673ffffffffffffffffffffffffffffffffffffffff16815260200190815260200160002060008473ffffffffffffffffffffffffffffffffffffffff1673ffffffffffffffffffffffffffffffffffffffff168152602001908152602001600020819055508173ffffffffffffffffffffffffffffffffffffffff168373ffffffffffffffffffffffffffffffffffffffff167f8c5be1e5ebec7d5bd14f71427d1e84f3dd0314c0f7b2291e5b200ac8c7c3b9258360405161112f91906120ae565b60405180910390a3505050565b6000818361114a9190612100565b905092915050565b600073ffffffffffffffffffffffffffffffffffffffff168273ffffffffffffffffffffffffffffffffffffffff1614156111c2576040517f08c379a00000000000000000000000000000000000000000000000000000000081526004016111b99061208e565b60405180910390fd5b6111ce6000838361173e565b80600260008282546111e09190612100565b92505081905550806000808473ffffffffffffffffffffffffffffffffffffffff1673ffffffffffffffffffffffffffffffffffffffff16815260200190815260200160002060008282546112359190612100565b925050819055508173ffffffffffffffffffffffffffffffffffffffff16600073ffffffffffffffffffffffffffffffffffffffff167fddf252ad1be2c89b69c2b068fc378daa952ba7f163c4a11628f55a4df523b3ef8360405161129a91906120ae565b60405180910390a36112ae60008383611743565b5050565b600073ffffffffffffffffffffffffffffffffffffffff168373ffffffffffffffffffffffffffffffffffffffff161415611322576040517f08c379a000000000000000000000000000000000000000000000000000000000815260040161131990611fee565b60405180910390fd5b600073ffffffffffffffffffffffffffffffffffffffff168273ffffffffffffffffffffffffffffffffffffffff161415611392576040517f08c379a000000000000000000000000000000000000000000000000000000000815260040161138990611eae565b60405180910390fd5b61139d83838361173e565b60008060008573ffffffffffffffffffffffffffffffffffffffff1673ffffffffffffffffffffffffffffffffffffffff16815260200190815260200160002054905081811015611423576040517f08c379a000000000000000000000000000000000000000000000000000000000815260040161141a90611f4e565b60405180910390fd5b8181036000808673ffffffffffffffffffffffffffffffffffffffff1673ffffffffffffffffffffffffffffffffffffffff16815260200190815260200160002081905550816000808573ffffffffffffffffffffffffffffffffffffffff1673ffffffffffffffffffffffffffffffffffffffff16815260200190815260200160002060008282546114b69190612100565b925050819055508273ffffffffffffffffffffffffffffffffffffffff168473ffffffffffffffffffffffffffffffffffffffff167fddf252ad1be2c89b69c2b068fc378daa952ba7f163c4a11628f55a4df523b3ef8460405161151a91906120ae565b60405180910390a361152d848484611743565b50505050565b61153b6109a7565b1561157b576040517f08c379a000000000000000000000000000000000000000000000000000000000815260040161157290611f6e565b60405180910390fd5b6001600560146101000a81548160ff0219169083151502179055507f62e78cea01bee320cd4e420270b5ea74000d11b0c9f74754ebdbfc544b05a2586115bf610f69565b6040516115cc9190611e56565b60405180910390a1565b6115de6109a7565b61161d576040517f08c379a000000000000000000000000000000000000000000000000000000000815260040161161490611ece565b60405180910390fd5b6000600560146101000a81548160ff0219169083151502179055507f5db9ee0a495bf2e6ff9c91a7834c1ba4fdd244a5e8aa4e537bd38aeae4b073aa611661610f69565b60405161166e9190611e56565b60405180910390a1565b6000600560009054906101000a900473ffffffffffffffffffffffffffffffffffffffff16905081600560006101000a81548173ffffffffffffffffffffffffffffffffffffffff021916908373ffffffffffffffffffffffffffffffffffffffff1602179055508173ffffffffffffffffffffffffffffffffffffffff168173ffffffffffffffffffffffffffffffffffffffff167f8be0079c531659141344cd1fd0a4f28419497f9722a3daafe3b4186f6b6457e060405160405180910390a35050565b505050565b505050565b600081359050611757816122d9565b92915050565b60008135905061176c816122f0565b92915050565b60006020828403121561178457600080fd5b600061179284828501611748565b91505092915050565b600080604083850312156117ae57600080fd5b60006117bc85828601611748565b92505060206117cd85828601611748565b9150509250929050565b6000806000606084860312156117ec57600080fd5b60006117fa86828701611748565b935050602061180b86828701611748565b925050604061181c8682870161175d565b9150509250925092565b6000806040838503121561183957600080fd5b600061184785828601611748565b92505060206118588582860161175d565b9150509250929050565b60006020828403121561187457600080fd5b60006118828482850161175d565b91505092915050565b611894816121b0565b82525050565b6118a3816121c2565b82525050565b60006118b4826120e4565b6118be81856120ef565b93506118ce818560208601612205565b6118d7816122c8565b840191505092915050565b60006118ef6023836120ef565b91507f45524332303a207472616e7366657220746f20746865207a65726f206164647260008301527f65737300000000000000000000000000000000000000000000000000000000006020830152604082019050919050565b60006119556014836120ef565b91507f5061757361626c653a206e6f74207061757365640000000000000000000000006000830152602082019050919050565b60006119956008836120ef565b91507f4f766572466c6f770000000000000000000000000000000000000000000000006000830152602082019050919050565b60006119d56026836120ef565b91507f4f776e61626c653a206e6577206f776e657220697320746865207a65726f206160008301527f64647265737300000000000000000000000000000000000000000000000000006020830152604082019050919050565b6000611a3b6022836120ef565b91507f45524332303a20617070726f766520746f20746865207a65726f20616464726560008301527f73730000000000000000000000000000000000000000000000000000000000006020830152604082019050919050565b6000611aa16026836120ef565b91507f45524332303a207472616e7366657220616d6f756e742065786365656473206260008301527f616c616e636500000000000000000000000000000000000000000000000000006020830152604082019050919050565b6000611b076010836120ef565b91507f5061757361626c653a20706175736564000000000000000000000000000000006000830152602082019050919050565b6000611b476028836120ef565b91507f45524332303a207472616e7366657220616d6f756e742065786365656473206160008301527f6c6c6f77616e63650000000000000000000000000000000000000000000000006020830152604082019050919050565b6000611bad6020836120ef565b91507f4f776e61626c653a2063616c6c6572206973206e6f7420746865206f776e65726000830152602082019050919050565b6000611bed602d836120ef565b91507f596f752063616e206e6f74205472616e7366657220546f6b656e207574696c2060008301527f74696d6520657863656564732e000000000000000000000000000000000000006020830152604082019050919050565b6000611c536025836120ef565b91507f45524332303a207472616e736665722066726f6d20746865207a65726f20616460008301527f64726573730000000000000000000000000000000000000000000000000000006020830152604082019050919050565b6000611cb96024836120ef565b91507f45524332303a20617070726f76652066726f6d20746865207a65726f2061646460008301527f72657373000000000000000000000000000000000000000000000000000000006020830152604082019050919050565b6000611d1f600c836120ef565b91507f456e74657220616d6f756e7400000000000000000000000000000000000000006000830152602082019050919050565b6000611d5f600f836120ef565b91507f494e56414c4944204144445245535300000000000000000000000000000000006000830152602082019050919050565b6000611d9f6025836120ef565b91507f45524332303a2064656372656173656420616c6c6f77616e63652062656c6f7760008301527f207a65726f0000000000000000000000000000000000000000000000000000006020830152604082019050919050565b6000611e05601f836120ef565b91507f45524332303a206d696e7420746f20746865207a65726f2061646472657373006000830152602082019050919050565b611e41816121ee565b82525050565b611e50816121f8565b82525050565b6000602082019050611e6b600083018461188b565b92915050565b6000602082019050611e86600083018461189a565b92915050565b60006020820190508181036000830152611ea681846118a9565b905092915050565b60006020820190508181036000830152611ec7816118e2565b9050919050565b60006020820190508181036000830152611ee781611948565b9050919050565b60006020820190508181036000830152611f0781611988565b9050919050565b60006020820190508181036000830152611f27816119c8565b9050919050565b60006020820190508181036000830152611f4781611a2e565b9050919050565b60006020820190508181036000830152611f6781611a94565b9050919050565b60006020820190508181036000830152611f8781611afa565b9050919050565b60006020820190508181036000830152611fa781611b3a565b9050919050565b60006020820190508181036000830152611fc781611ba0565b9050919050565b60006020820190508181036000830152611fe781611be0565b9050919050565b6000602082019050818103600083015261200781611c46565b9050919050565b6000602082019050818103600083015261202781611cac565b9050919050565b6000602082019050818103600083015261204781611d12565b9050919050565b6000602082019050818103600083015261206781611d52565b9050919050565b6000602082019050818103600083015261208781611d92565b9050919050565b600060208201905081810360008301526120a781611df8565b9050919050565b60006020820190506120c36000830184611e38565b92915050565b60006020820190506120de6000830184611e47565b92915050565b600081519050919050565b600082825260208201905092915050565b600061210b826121ee565b9150612116836121ee565b9250827fffffffffffffffffffffffffffffffffffffffffffffffffffffffffffffffff0382111561214b5761214a61226a565b5b828201905092915050565b6000612161826121ee565b915061216c836121ee565b9250817fffffffffffffffffffffffffffffffffffffffffffffffffffffffffffffffff04831182151516156121a5576121a461226a565b5b828202905092915050565b60006121bb826121ce565b9050919050565b60008115159050919050565b600073ffffffffffffffffffffffffffffffffffffffff82169050919050565b6000819050919050565b600060ff82169050919050565b60005b83811015612223578082015181840152602081019050612208565b83811115612232576000848401525b50505050565b6000600282049050600182168061225057607f821691505b6020821081141561226457612263612299565b5b50919050565b7f4e487b7100000000000000000000000000000000000000000000000000000000600052601160045260246000fd5b7f4e487b7100000000000000000000000000000000000000000000000000000000600052602260045260246000fd5b6000601f19601f8301169050919050565b6122e2816121b0565b81146122ed57600080fd5b50565b6122f9816121ee565b811461230457600080fd5b5056fea2646970667358221220145897145e302cd516671561394434703043a17dc27dcbd8bc3159b5dbeccccc64736f6c63430008000033",
  "linkReferences": {},
  "deployedLinkReferences": {}
}